:020000040000FA
:10000000A304020A6400A3049E0BA304880BA304A8
:020010008D0B56
:10031000080C0600000C020000082700A40461007D
:10032000970B07024307950B960B970B8E0B270C29
:10033000810003079C0B9D0B910B0008A30405098A
:10034000A304A4040603340034031403010EA3041D
:100350000709A304A404770017024307B00BB10BED
:10036000B50B2604A60486042605050C9701430751
:10037000BA0BBB0BBC0BA6050A0C97014307C10BBC
:10038000C20BC50B2604A6048605140C970143076F
:10039000CA0BCB0BCD0B8604A6057600410CA4043A
:1003A0003500EE0C3400F402D30BF502D30BA40499
:1003B0006606DB0BDC0BE80B2604A60486040603AA
:1003C000340034031403010EA3040709A30403003B
:1003D000010C2F000F02A404F601140C9600030771
:1003E000F20BF30BCE0B010C2F000F02F701190CCF
:1003F00097000307FC0BFD0BAC0BAA0BA304000A30
:021FFE00EA0FE8
:00000001FF
